:100000000C9462000C948A000C948A000C948A0070
:100010000C948A000C948A000C948A000C948A0038
:100020000C948A000C948A000C948A000C948A0028
:100030000C948A000C948A000C948A000C948A0018
:100040000C943A020C948A000C94E2030C948A00FB
:100050000C948A000C948A000C948A000C948A00F8
:100060000C948A000C948A000000000024002700F1
:100070002A0000000000250028002B0000000000DE
:1000800023002600290004040404040404040202DA
:100090000202020203030303030301020408102007
:1000A0004080010204081020010204081020000012
:1000B0000007000201000003040600000000000029
:1000C00000002B0511241FBECFEFD4E0DEBFCDBF53
:1000D00011E0A0E0B1E0EAE0FEE002C005900D9280
:1000E000AE30B107D9F711E0AEE0B1E001C01D922A
:1000F000AE3AB107E1F710E0C4ECD0E004C02297BB
:10010000FE010E94FF06C23CD107C9F70E943302DC
:100110000C9403070C9400002F923F924F925F9231
:100120006F927F928F929F92AF92BF92CF92DF9207
:10013000EF92FF920F931F93DF93CF93CDB7DEB76C
:100140002C970FB6F894DEBF0FBECDBF8091020191
:1001500061E00E94140387E061E00E94F40287E0FE
:1001600060E00E94140382E090E00E94AC0287E00D
:1001700061E00E94140385E090E00E94AC0287E0F9
:1001800060E00E94140387E060E00E94F40287E0D0
:1001900061E020E432E44FE050E00E9461036987AF
:1001A0007A878B879C8786E061E00E94F40286E074
:1001B00060E00E94140382E090E00E94AC0286E0BE
:1001C00061E00E94140385E090E00E94AC0286E0AA
:1001D00060E00E94140386E060E00E94F40286E082
:1001E00061E020E432E44FE050E00E9461036D835F
:1001F0007E838F83988785E061E00E94F40285E02A
:1002000060E00E94140382E090E00E94AC0285E06E
:1002100061E00E94140385E090E00E94AC0285E05A
:1002200060E00E94140385E060E00E94F40285E033
:1002300061E020E432E44FE050E00E946103698312
:100240007A838B839C8384E061E00E94F40284E0E3
:1002500060E00E94140382E090E00E94AC0284E01F
:1002600061E00E94140385E090E00E94AC0284E00B
:1002700060E00E94140384E060E00E94F40284E0E5
:1002800061E020E432E44FE050E00E9461031B0192
:100290002C0183E061E00E94F40283E060E00E94B0
:1002A000140382E090E00E94AC0283E061E00E94CF
:1002B000140385E090E00E94AC0283E060E00E94BD
:1002C000140383E060E00E94F40283E061E020E434
:1002D00032E44FE050E00E9461033B014C0182E0B8
:1002E00061E00E94F40282E060E00E94140382E078
:1002F00090E00E94AC0282E061E00E94140385E07D
:1003000090E00E94AC0282E060E00E94140382E070
:1003100060E00E94F40282E061E020E432E44FE019
:1003200050E00E9461035B016C010BE911E06985FB
:100330007A858B859C852AE330E040E050E00E947E
:10034000CE06C801BA01A9010E94530680E0E82E3A
:1003500081E0F82EC801B7010E949C056D817E8165
:100360008F8198852AE330E040E050E00E94CE067D
:10037000C801BA01A9010E945306C801B7010E9431
:100380009C0569817A818B819C812AE330E040E081
:1003900050E00E94CE06C801BA01A9010E9453068E
:1003A000C801B7010E949C05C201B1012AE330E0F7
:1003B00040E050E00E94CE06C801BA01A9010E94A7
:1003C0005306C801B7010E949C05C401B3012AE38A
:1003D00030E040E050E00E94CE06C801BA01A90119
:1003E0000E945306C801B7010E949C05C601B501D1
:1003F0002AE330E040E050E00E94CE06C801BA0196
:10040000A9010E945306C8010E94A4056AE070E099
:1004100080E090E00E9482022C960FB6F894DEBF36
:100420000FBECDBFCF91DF911F910F91FF90EF9045
:10043000DF90CF90BF90AF909F908F907F906F9004
:100440005F904F903F902F9008958BE991E040E0AE
:1004500052EC61E070E00E941F048091020161E0B3
:100460000E94F40208950E94BA020E9425020E948E
:100470008C00FDCF1F920F920FB60F9211242F9375
:100480003F938F939F93AF93BF938091120190916D
:100490001301A0911401B09115013091160101963C
:1004A000A11DB11D232F2D5F2D3720F02D57019653
:1004B000A11DB11D20931601809312019093130189
:1004C000A0931401B093150180910E0190910F013A
:1004D000A0911001B09111010196A11DB11D809351
:1004E0000E0190930F01A0931001B0931101BF91E1
:1004F000AF919F918F913F912F910F900FBE0F90D1
:100500001F901895EF92FF920F931F937B018C0120
:100510008FB7F8944091120150911301609114012A
:10052000709115018FBF2FB7F894809112019091AF
:100530001301A0911401B09115012FBF841B950BDD
:10054000A60BB70BE816F9060A071B0760F71F9101
:100550000F91FF90EF900895019759F0FC01EE0F75
:10056000FF1FEE0FFF1F32978FB7F8943197F1F707
:100570008FBF0895789484B5826084BD84B581600E
:1005800084BD85B5826085BD85B5816085BDEEE69B
:10059000F0E0808181608083E1E8F0E0808182602A
:1005A0008083808181608083E0E8F0E080818160E9
:1005B0008083E1EBF0E0808184608083E0EBF0E019
:1005C000808181608083EAE7F0E0808184608083BD
:1005D0008081826080838081816080838081806867
:1005E00080831092C1000895282F30E0C9018656FB
:1005F0009F4FFC0194912A573F4FF9018491882322
:1006000091F0E82FF0E0EE0FFF1FE859FF4FA591A2
:10061000B491662329F48C91909589238C93089545
:100620008C91892B8C930895482F50E0CA018255F4
:100630009F4FFC012491CA0186569F4FFC01949163
:100640004A575F4FFA0134913323D1F1222331F11C
:10065000233021F4809180008F7705C0243031F45D
:10066000809180008F7D8093800018C0213019F424
:1006700084B58F7704C0223021F484B58F7D84BD8A
:100680000DC0263021F48091B0008F7705C027304F
:1006900029F48091B0008F7D8093B000E32FF0E0CB
:1006A000EE0FFF1FEE58FF4FA591B491662329F47A
:1006B0008C91909589238C9308958C91892B8C93A0
:1006C0000895DF92EF92FF920F931F93A82FB0E04F
:1006D000CD0186569F4FFC01D490AA57BF4FFD0114
:1006E0008491662311F490E001C09D2D6FEFE62EFA
:1006F0006FEFF62E6FEF062F6FE0162FE222F32238
:1007000004231523682F70E0660F771F64587F4F0E
:1007100020E030E040E050E0FB01A591B4910AC038
:100720002E153F054007510709F440C02F5F3F4F8A
:100730004F4F5F4F8C918D21891791F30AC02E1571
:100740003F054007510791F12F5F3F4F4F4F5F4FDC
:1007500003C0FB01A591B4918C918D21891779F784
:1007600020E030E040E050E0FB01A591B49104C0EE
:100770002F5F3F4F4F4F5F4F8C918D218917C1F3F2
:10078000CA01B9012AE030E040E050E00E947A0658
:100790009B01AC01205F3F4F4F4F5F4F84E0569568
:1007A0004795379527958A95D1F704C020E030E02A
:1007B00040E050E0B901CA011F910F91FF90EF9006
:1007C000DF9008951F920F920FB60F9211242F936E
:1007D0003F934F935F936F937F938F939F93AF93C9
:1007E000BF93EF93FF934091C600E0919701F09182
:1007F0009801CF01019660E870E00E9499069C0183
:100800008091990190919A012817390739F0E95E92
:10081000FE4F40833093980120939701FF91EF9111
:10082000BF91AF919F918F917F916F915F914F9108
:100830003F912F910F900FBE0F901F9018955F92D0
:100840006F927F928F929F92AF92BF92CF92DF92E0
:10085000EF92FF920F931F93CF93DF93EC013A0136
:100860004B01413482E458078FE0680780E0780745
:100870000CF07FC060E874E88EE190E0A401930181
:100880000E94CE062150304040405040CA01B9017C
:1008900022E030E040E050E00E94CE0659016A01BB
:1008A000A6019501209530954095509594E0220F32
:1008B000331F441F551F9A95D1F760E074E284EF0F
:1008C00090E00E94CE06CA01B9012FEF30E040E06F
:1008D00050E00E947A06A40193010E94CE06C9014D
:1008E00081509F4F181619061CF4522E5A9403C0BB
:1008F00055245394521A60E079E08DE390E0A4010E
:1009000093010E94CE062150304040405040CA0121
:10091000B90122E030E040E050E00E94CE06209590
:1009200030954095509583E0220F331F441F551F8B
:100930008A95D1F760E074E284EF90E00E94CE06E1
:10094000CA01B9012FEF30E040E050E00E947A0682
:10095000A40193010E94CE06C90181509F4F181631
:1009600019061CF4822F815002C081E0821B85157C
:1009700000F5E885F98581E090E00A8802C0880FDB
:10098000991F0A94E2F7808360E079E08DE390E0BC
:10099000A40193010E94CE062150304040405040B7
:1009A000CA01B90122E030E040E050E00E94CE06EA
:1009B00004C0E885F98510829501EC81FD813083C2
:1009C000EE81FF812083EA85FB85208141E050E0B4
:1009D000CA010E8402C0880F991F0A94E2F7282BDF
:1009E0002083EA85FB852081CA010F8402C0880F1D
:1009F000991F0A94E2F7282B2083EA85FB858081E2
:100A0000088802C0440F551F0A94E2F7842B8083A4
:100A1000DF91CF911F910F91FF90EF90DF90CF90DA
:100A2000BF90AF909F908F907F906F905F90089550
:100A3000FC01A085B18521898C9190E0022E02C035
:100A4000959587950A94E2F780FFF6CF0484F585A3
:100A5000E02D6083089588E091E090939C0180935D
:100A60009B0187E191E090939E0180939D0185EC2D
:100A700090E09093A00180939F0184EC90E090938C
:100A8000A2018093A10180EC90E09093A401809357
:100A9000A30181EC90E09093A6018093A50186ECE0
:100AA00090E09093A8018093A70184E08093A9012E
:100AB00083E08093AA0187E08093AB0185E0809377
:100AC000AC0181E08093AD0108950F931F93CF9304
:100AD000DF938C01EB0109C02196D801ED91FC91C7
:100AE0000190F081E02DC801099568816623A1F786
:100AF000DF91CF911F910F910895EF92FF920F9385
:100B00001F93CF93DF938C017B01EA010CC0D701C7
:100B10006D917D01D801ED91FC910190F081E02D66
:100B2000C80109952197209791F7DF91CF911F91E7
:100B30000F91FF90EF900895DC01ED91FC91028000
:100B4000F381E02D099508950F931F938C01DC012B
:100B5000ED91FC910190F081E02D6DE00995D801B7
:100B6000ED91FC910190F081E02DC8016AE00995BA
:100B70001F910F9108952F923F924F925F926F9223
:100B80007F928F929F92AF92BF92CF92DF92EF921D
:100B9000FF920F931F93DF93CF93CDB7DEB7A0974C
:100BA0000FB6F894DEBF0FBECDBF1C016A017B01FA
:100BB000411551056105710549F4DC01ED91FC9188
:100BC0000190F081E02D60E3099554C088249924B8
:100BD0005401422E55246624772401E010E00C0FC6
:100BE0001D1F080D191DC701B601A30192010E9426
:100BF000AC06F80160830894811C911CA11CB11CF7
:100C0000C701B601A30192010E94AC06C901DA0135
:100C10006C017D01C114D104E104F104F1F681E01D
:100C2000E82EF12CEC0EFD1EE80CF91C3E01089498
:100C3000611C711CD501C4010197A109B1096C01A6
:100C4000C818D90814C0F601EE0DFF1D60816A3086
:100C500010F4605D01C0695CD101ED91FC910190DF
:100C6000F081E02DC10109950894E108F1086E14A6
:100C70007F0449F7A0960FB6F894DEBF0FBECDBF34
:100C8000CF91DF911F910F91FF90EF90DF90CF9068
:100C9000BF90AF909F908F907F906F905F904F909C
:100CA0003F902F900895EF92FF920F931F93CF9351
:100CB000DF93EC017A018B0177FF0FC0E881F981A6
:100CC0000190F081E02D6DE2099510950095F0946A
:100CD000E094E11CF11C011D111DCE01B801A7011A
:100CE0002AE00E94BB05DF91CF911F910F91FF90E9
:100CF000EF900895629FD001739FF001829FE00DF5
:100D0000F11D649FE00DF11D929FF00D839FF00D8A
:100D1000749FF00D659FF00D9927729FB00DE11D36
:100D2000F91F639FB00DE11DF91FBD01CF01112413
:100D3000089597FB092E07260AD077FD04D049D0E5
:100D400006D000201AF4709561957F4F0895F6F74C
:100D5000909581959F4F0895A1E21A2EAA1BBB1B67
:100D6000FD010DC0AA1FBB1FEE1FFF1FA217B30777
:100D7000E407F50720F0A21BB30BE40BF50B661F8D
:100D8000771F881F991F1A9469F760957095809551
:100D900090959B01AC01BD01CF01089597FB092EF1
:100DA00005260ED057FD04D0D7DF0AD0001C38F43A
:100DB00050954095309521953F4F4F4F5F4F089587
:100DC000F6F790958095709561957F4F8F4F9F4F67
:100DD0000895AA1BBB1B51E107C0AA1FBB1FA61782
:100DE000B70710F0A61BB70B881F991F5A95A9F7D4
:100DF00080959095BC01CD010895EE0FFF1F0590E1
:0A0E0000F491E02D0994F894FFCF5F
:0E0E0A0020000D0000000000180565057D05A4
:00000001FF
